{
  "_format": "hh-sol-artifact-1",
  "contractName": "MrMarketFactory",
  "sourceName": "contracts/MrMarket.sol",
  "abi": [
    {
      "anonymous": false,
      "inputs": [
        {
          "indexed": false,
          "internalType": "uint256",
          "name": "id",
          "type": "uint256"
        },
        {
          "indexed": false,
          "internalType": "string",
          "name": "name",
          "type": "string"
        },
        {
          "indexed": false,
          "internalType": "uint256",
          "name": "dna",
          "type": "uint256"
        }
      ],
      "name": "NewMrMarket",
      "type": "event"
    },
    {
      "inputs": [
        {
          "internalType": "string",
          "name": "_name",
          "type": "string"
        }
      ],
      "name": "createRandomMrMarket",
      "outputs": [],
      "stateMutability": "nonpayable",
      "type": "function"
    },
    {
      "inputs": [
        {
          "internalType": "uint256",
          "name": "",
          "type": "uint256"
        }
      ],
      "name": "mrMarkets",
      "outputs": [
        {
          "internalType": "string",
          "name": "name",
          "type": "string"
        },
        {
          "internalType": "uint256",
          "name": "dna",
          "type": "uint256"
        }
      ],
      "stateMutability": "view",
      "type": "function"
    }
  ],
  "bytecode": "0x60806040526064600055600054600a6200001a9190620001be565b6001553480156200002a57600080fd5b506200020f565b7f4e487b7100000000000000000000000000000000000000000000000000000000600052601160045260246000fd5b60008160011c9050919050565b6000808291508390505b6001851115620000bf5780860481111562000097576200009662000031565b5b6001851615620000a75780820291505b8081029050620000b78562000060565b945062000077565b94509492505050565b600082620000da5760019050620001ad565b81620000ea5760009050620001ad565b81600181146200010357600281146200010e5762000144565b6001915050620001ad565b60ff84111562000123576200012262000031565b5b8360020a9150848211156200013d576200013c62000031565b5b50620001ad565b5060208310610133831016604e8410600b84101617156200017e5782820a90508381111562000178576200017762000031565b5b620001ad565b6200018d84848460016200006d565b92509050818404811115620001a757620001a662000031565b5b81810290505b9392505050565b6000819050919050565b6000620001cb82620001b4565b9150620001d883620001b4565b9250620002077fffffffffffffffffffffffffffffffffffffffffffffffffffffffffffffffff8484620000c8565b905092915050565b6107be806200021f6000396000f3fe608060405234801561001057600080fd5b50600436106100365760003560e01c80632139a5bf1461003b578063f4d19f7a14610057575b600080fd5b61005560048036038101906100509190610460565b610088565b005b610071600480360381019061006c91906104df565b6100a3565b60405161007f9291906105a3565b60405180910390f35b60006100938261015f565b905061009f82826101a4565b5050565b600281815481106100b357600080fd5b90600052602060002090600202016000915090508060000180546100d690610602565b80601f016020809104026020016040519081016040528092919081815260200182805461010290610602565b801561014f5780601f106101245761010080835404028352916020019161014f565b820191906000526020600020905b81548152906001019060200180831161013257829003601f168201915b5050505050908060010154905082565b600080826040516020016101739190610670565b6040516020818303038152906040528051906020012060001c90506001548161019c91906106b6565b915050919050565b600260405180604001604052808481526020018381525090806001815401808255809150506001900390600052602060002090600202016000909190919091506000820151816000019080519060200190610200929190610263565b50602082015181600101555050600060016002805490506102219190610716565b90507f55c0c80094f440985decfe5c5dd3fc1b29aa1996cc6be8bbacbfd100370e065b8184846040516102569392919061074a565b60405180910390a1505050565b82805461026f90610602565b90600052602060002090601f01602090048101928261029157600085556102d8565b82601f106102aa57805160ff19168380011785556102d8565b828001600101855582156102d8579182015b828111156102d75782518255916020019190600101906102bc565b5b5090506102e591906102e9565b5090565b5b808211156103025760008160009055506001016102ea565b5090565b6000604051905090565b600080fd5b600080fd5b600080fd5b600080fd5b6000601f19601f8301169050919050565b7f4e487b7100000000000000000000000000000000000000000000000000000000600052604160045260246000fd5b61036d82610324565b810181811067ffffffffffffffff8211171561038c5761038b610335565b5b80604052505050565b600061039f610306565b90506103ab8282610364565b919050565b600067ffffffffffffffff8211156103cb576103ca610335565b5b6103d482610324565b9050602081019050919050565b82818337600083830152505050565b60006104036103fe846103b0565b610395565b90508281526020810184848401111561041f5761041e61031f565b5b61042a8482856103e1565b509392505050565b600082601f8301126104475761044661031a565b5b81356104578482602086016103f0565b91505092915050565b60006020828403121561047657610475610310565b5b600082013567ffffffffffffffff81111561049457610493610315565b5b6104a084828501610432565b91505092915050565b6000819050919050565b6104bc816104a9565b81146104c757600080fd5b50565b6000813590506104d9816104b3565b92915050565b6000602082840312156104f5576104f4610310565b5b6000610503848285016104ca565b91505092915050565b600081519050919050565b600082825260208201905092915050565b60005b8381101561054657808201518184015260208101905061052b565b83811115610555576000848401525b50505050565b60006105668261050c565b6105708185610517565b9350610580818560208601610528565b61058981610324565b840191505092915050565b61059d816104a9565b82525050565b600060408201905081810360008301526105bd818561055b565b90506105cc6020830184610594565b9392505050565b7f4e487b7100000000000000000000000000000000000000000000000000000000600052602260045260246000fd5b6000600282049050600182168061061a57607f821691505b6020821081141561062e5761062d6105d3565b5b50919050565b600081905092915050565b600061064a8261050c565b6106548185610634565b9350610664818560208601610528565b80840191505092915050565b600061067c828461063f565b915081905092915050565b7f4e487b7100000000000000000000000000000000000000000000000000000000600052601260045260246000fd5b60006106c1826104a9565b91506106cc836104a9565b9250826106dc576106db610687565b5b828206905092915050565b7f4e487b7100000000000000000000000000000000000000000000000000000000600052601160045260246000fd5b6000610721826104a9565b915061072c836104a9565b92508282101561073f5761073e6106e7565b5b828203905092915050565b600060608201905061075f6000830186610594565b8181036020830152610771818561055b565b90506107806040830184610594565b94935050505056fea264697066735822122000f87ab1f87cfff691113edc99ce562fbed6aebf936257f99d4fec3e9d4b48e764736f6c63430008090033",
  "linkReferences": {},
  "deployedLinkReferences": {}
}