{
  "_format": "hh-sol-artifact-1",
  "contractName": "MrMarketFactory",
  "sourceName": "contracts/MrMarketFactory.sol",
  "abi": [
    {
      "anonymous": false,
      "inputs": [
        {
          "indexed": false,
          "internalType": "uint256",
          "name": "id",
          "type": "uint256"
        },
        {
          "indexed": false,
          "internalType": "string",
          "name": "name",
          "type": "string"
        },
        {
          "indexed": false,
          "internalType": "uint256",
          "name": "dna",
          "type": "uint256"
        }
      ],
      "name": "NewMrMarket",
      "type": "event"
    },
    {
      "inputs": [
        {
          "internalType": "string",
          "name": "_name",
          "type": "string"
        }
      ],
      "name": "createRandomMrMarket",
      "outputs": [],
      "stateMutability": "nonpayable",
      "type": "function"
    },
    {
      "inputs": [
        {
          "internalType": "uint256",
          "name": "",
          "type": "uint256"
        }
      ],
      "name": "mrMarkets",
      "outputs": [
        {
          "internalType": "string",
          "name": "name",
          "type": "string"
        },
        {
          "internalType": "uint256",
          "name": "dna",
          "type": "uint256"
        }
      ],
      "stateMutability": "view",
      "type": "function"
    }
  ],
  "bytecode": "0x608060405234801561001057600080fd5b50610b1d806100206000396000f3fe608060405234801561001057600080fd5b50600436106100365760003560e01c80632139a5bf1461003b578063f4d19f7a14610057575b600080fd5b610055600480360381019061005091906103cd565b610088565b005b610071600480360381019061006c919061044c565b6100a3565b60405161007f929190610507565b60405180910390f35b60006100938261015f565b905061009f82826101bb565b5050565b600081815481106100b357600080fd5b90600052602060002090600202016000915090508060000180546100d690610566565b80601f016020809104026020016040519081016040528092919081815260200182805461010290610566565b801561014f5780601f106101245761010080835404028352916020019161014f565b820191906000526020600020905b81548152906001019060200180831161013257829003601f168201915b5050505050908060010154905082565b60008060649050600081600a61017591906106f9565b905060008460405160200161018a9190610780565b6040516020818303038152906040528051906020012060001c905081816101b191906107c6565b9350505050919050565b60006040518060400160405280848152602001838152509080600181540180825580915050600190039060005260206000209060020201600090919091909150600082015181600001908161021091906109a3565b50602082015181600101555050600060016000805490506102319190610a75565b90507f55c0c80094f440985decfe5c5dd3fc1b29aa1996cc6be8bbacbfd100370e065b81848460405161026693929190610aa9565b60405180910390a1505050565b6000604051905090565b600080fd5b600080fd5b600080fd5b600080fd5b6000601f19601f8301169050919050565b7f4e487b7100000000000000000000000000000000000000000000000000000000600052604160045260246000fd5b6102da82610291565b810181811067ffffffffffffffff821117156102f9576102f86102a2565b5b80604052505050565b600061030c610273565b905061031882826102d1565b919050565b600067ffffffffffffffff821115610338576103376102a2565b5b61034182610291565b9050602081019050919050565b82818337600083830152505050565b600061037061036b8461031d565b610302565b90508281526020810184848401111561038c5761038b61028c565b5b61039784828561034e565b509392505050565b600082601f8301126103b4576103b3610287565b5b81356103c484826020860161035d565b91505092915050565b6000602082840312156103e3576103e261027d565b5b600082013567ffffffffffffffff81111561040157610400610282565b5b61040d8482850161039f565b91505092915050565b6000819050919050565b61042981610416565b811461043457600080fd5b50565b60008135905061044681610420565b92915050565b6000602082840312156104625761046161027d565b5b600061047084828501610437565b91505092915050565b600081519050919050565b600082825260208201905092915050565b60005b838110156104b3578082015181840152602081019050610498565b60008484015250505050565b60006104ca82610479565b6104d48185610484565b93506104e4818560208601610495565b6104ed81610291565b840191505092915050565b61050181610416565b82525050565b6000604082019050818103600083015261052181856104bf565b905061053060208301846104f8565b9392505050565b7f4e487b7100000000000000000000000000000000000000000000000000000000600052602260045260246000fd5b6000600282049050600182168061057e57607f821691505b60208210810361059157610590610537565b5b50919050565b7f4e487b7100000000000000000000000000000000000000000000000000000000600052601160045260246000fd5b60008160011c9050919050565b6000808291508390505b600185111561061d578086048111156105f9576105f8610597565b5b60018516156106085780820291505b8081029050610616856105c6565b94506105dd565b94509492505050565b60008261063657600190506106f2565b8161064457600090506106f2565b816001811461065a576002811461066457610693565b60019150506106f2565b60ff84111561067657610675610597565b5b8360020a91508482111561068d5761068c610597565b5b506106f2565b5060208310610133831016604e8410600b84101617156106c85782820a9050838111156106c3576106c2610597565b5b6106f2565b6106d584848460016105d3565b925090508184048111156106ec576106eb610597565b5b81810290505b9392505050565b600061070482610416565b915061070f83610416565b925061073c7fffffffffffffffffffffffffffffffffffffffffffffffffffffffffffffffff8484610626565b905092915050565b600081905092915050565b600061075a82610479565b6107648185610744565b9350610774818560208601610495565b80840191505092915050565b600061078c828461074f565b915081905092915050565b7f4e487b7100000000000000000000000000000000000000000000000000000000600052601260045260246000fd5b60006107d182610416565b91506107dc83610416565b9250826107ec576107eb610797565b5b828206905092915050565b60008190508160005260206000209050919050565b60006020601f8301049050919050565b600082821b905092915050565b6000600883026108597fffffffffffffffffffffffffffffffffffffffffffffffffffffffffffffffff8261081c565b610863868361081c565b95508019841693508086168417925050509392505050565b6000819050919050565b60006108a061089b61089684610416565b61087b565b610416565b9050919050565b6000819050919050565b6108ba83610885565b6108ce6108c6826108a7565b848454610829565b825550505050565b600090565b6108e36108d6565b6108ee8184846108b1565b505050565b5b81811015610912576109076000826108db565b6001810190506108f4565b5050565b601f82111561095757610928816107f7565b6109318461080c565b81016020851015610940578190505b61095461094c8561080c565b8301826108f3565b50505b505050565b600082821c905092915050565b600061097a6000198460080261095c565b1980831691505092915050565b60006109938383610969565b9150826002028217905092915050565b6109ac82610479565b67ffffffffffffffff8111156109c5576109c46102a2565b5b6109cf8254610566565b6109da828285610916565b600060209050601f831160018114610a0d57600084156109fb578287015190505b610a058582610987565b865550610a6d565b601f198416610a1b866107f7565b60005b82811015610a4357848901518255600182019150602085019450602081019050610a1e565b86831015610a605784890151610a5c601f891682610969565b8355505b6001600288020188555050505b505050505050565b6000610a8082610416565b9150610a8b83610416565b9250828203905081811115610aa357610aa2610597565b5b92915050565b6000606082019050610abe60008301866104f8565b8181036020830152610ad081856104bf565b9050610adf60408301846104f8565b94935050505056fea2646970667358221220966cadb797a9b405a431c53c75d50d8c8a5fcb782f44b8cdf7e2240d8daca6f564736f6c63430008110033",
  "linkReferences": {},
  "deployedLinkReferences": {}
}